{
  "_format": "hh-sol-artifact-1",
  "contractName": "SharkNFT",
  "sourceName": "contracts/sharkNFT.sol",
  "abi": [
    {
      "inputs": [],
      "stateMutability": "nonpayable",
      "type": "constructor"
    },
    {
      "anonymous": false,
      "inputs": [
        {
          "indexed": true,
          "internalType": "address",
          "name": "owner",
          "type": "address"
        },
        {
          "indexed": true,
          "internalType": "address",
          "name": "approved",
          "type": "address"
        },
        {
          "indexed": true,
          "internalType": "uint256",
          "name": "tokenId",
          "type": "uint256"
        }
      ],
      "name": "Approval",
      "type": "event"
    },
    {
      "anonymous": false,
      "inputs": [
        {
          "indexed": true,
          "internalType": "address",
          "name": "owner",
          "type": "address"
        },
        {
          "indexed": true,
          "internalType": "address",
          "name": "operator",
          "type": "address"
        },
        {
          "indexed": false,
          "internalType": "bool",
          "name": "approved",
          "type": "bool"
        }
      ],
      "name": "ApprovalForAll",
      "type": "event"
    },
    {
      "anonymous": false,
      "inputs": [
        {
          "indexed": true,
          "internalType": "address",
          "name": "previousOwner",
          "type": "address"
        },
        {
          "indexed": true,
          "internalType": "address",
          "name": "newOwner",
          "type": "address"
        }
      ],
      "name": "OwnershipTransferred",
      "type": "event"
    },
    {
      "anonymous": false,
      "inputs": [
        {
          "indexed": true,
          "internalType": "address",
          "name": "from",
          "type": "address"
        },
        {
          "indexed": true,
          "internalType": "address",
          "name": "to",
          "type": "address"
        },
        {
          "indexed": true,
          "internalType": "uint256",
          "name": "tokenId",
          "type": "uint256"
        }
      ],
      "name": "Transfer",
      "type": "event"
    },
    {
      "inputs": [
        {
          "internalType": "address",
          "name": "to",
          "type": "address"
        },
        {
          "internalType": "uint256",
          "name": "tokenId",
          "type": "uint256"
        }
      ],
      "name": "approve",
      "outputs": [],
      "stateMutability": "nonpayable",
      "type": "function"
    },
    {
      "inputs": [
        {
          "internalType": "address",
          "name": "owner",
          "type": "address"
        }
      ],
      "name": "balanceOf",
      "outputs": [
        {
          "internalType": "uint256",
          "name": "",
          "type": "uint256"
        }
      ],
      "stateMutability": "view",
      "type": "function"
    },
    {
      "inputs": [
        {
          "internalType": "uint256",
          "name": "tokenId",
          "type": "uint256"
        }
      ],
      "name": "getApproved",
      "outputs": [
        {
          "internalType": "address",
          "name": "",
          "type": "address"
        }
      ],
      "stateMutability": "view",
      "type": "function"
    },
    {
      "inputs": [
        {
          "internalType": "address",
          "name": "owner",
          "type": "address"
        },
        {
          "internalType": "address",
          "name": "operator",
          "type": "address"
        }
      ],
      "name": "isApprovedForAll",
      "outputs": [
        {
          "internalType": "bool",
          "name": "",
          "type": "bool"
        }
      ],
      "stateMutability": "view",
      "type": "function"
    },
    {
      "inputs": [
        {
          "internalType": "address",
          "name": "_to",
          "type": "address"
        },
        {
          "internalType": "string",
          "name": "tokenURI",
          "type": "string"
        }
      ],
      "name": "mintShark",
      "outputs": [
        {
          "internalType": "uint256",
          "name": "",
          "type": "uint256"
        }
      ],
      "stateMutability": "nonpayable",
      "type": "function"
    },
    {
      "inputs": [],
      "name": "name",
      "outputs": [
        {
          "internalType": "string",
          "name": "",
          "type": "string"
        }
      ],
      "stateMutability": "view",
      "type": "function"
    },
    {
      "inputs": [],
      "name": "owner",
      "outputs": [
        {
          "internalType": "address",
          "name": "",
          "type": "address"
        }
      ],
      "stateMutability": "view",
      "type": "function"
    },
    {
      "inputs": [
        {
          "internalType": "uint256",
          "name": "tokenId",
          "type": "uint256"
        }
      ],
      "name": "ownerOf",
      "outputs": [
        {
          "internalType": "address",
          "name": "",
          "type": "address"
        }
      ],
      "stateMutability": "view",
      "type": "function"
    },
    {
      "inputs": [],
      "name": "renounceOwnership",
      "outputs": [],
      "stateMutability": "nonpayable",
      "type": "function"
    },
    {
      "inputs": [
        {
          "internalType": "address",
          "name": "from",
          "type": "address"
        },
        {
          "internalType": "address",
          "name": "to",
          "type": "address"
        },
        {
          "internalType": "uint256",
          "name": "tokenId",
          "type": "uint256"
        }
      ],
      "name": "safeTransferFrom",
      "outputs": [],
      "stateMutability": "nonpayable",
      "type": "function"
    },
    {
      "inputs": [
        {
          "internalType": "address",
          "name": "from",
          "type": "address"
        },
        {
          "internalType": "address",
          "name": "to",
          "type": "address"
        },
        {
          "internalType": "uint256",
          "name": "tokenId",
          "type": "uint256"
        },
        {
          "internalType": "bytes",
          "name": "_data",
          "type": "bytes"
        }
      ],
      "name": "safeTransferFrom",
      "outputs": [],
      "stateMutability": "nonpayable",
      "type": "function"
    },
    {
      "inputs": [
        {
          "internalType": "address",
          "name": "operator",
          "type": "address"
        },
        {
          "internalType": "bool",
          "name": "approved",
          "type": "bool"
        }
      ],
      "name": "setApprovalForAll",
      "outputs": [],
      "stateMutability": "nonpayable",
      "type": "function"
    },
    {
      "inputs": [
        {
          "internalType": "bytes4",
          "name": "interfaceId",
          "type": "bytes4"
        }
      ],
      "name": "supportsInterface",
      "outputs": [
        {
          "internalType": "bool",
          "name": "",
          "type": "bool"
        }
      ],
      "stateMutability": "view",
      "type": "function"
    },
    {
      "inputs": [],
      "name": "symbol",
      "outputs": [
        {
          "internalType": "string",
          "name": "",
          "type": "string"
        }
      ],
      "stateMutability": "view",
      "type": "function"
    },
    {
      "inputs": [
        {
          "internalType": "uint256",
          "name": "tokenId",
          "type": "uint256"
        }
      ],
      "name": "tokenURI",
      "outputs": [
        {
          "internalType": "string",
          "name": "",
          "type": "string"
        }
      ],
      "stateMutability": "view",
      "type": "function"
    },
    {
      "inputs": [
        {
          "internalType": "address",
          "name": "from",
          "type": "address"
        },
        {
          "internalType": "address",
          "name": "to",
          "type": "address"
        },
        {
          "internalType": "uint256",
          "name": "tokenId",
          "type": "uint256"
        }
      ],
      "name": "transferFrom",
      "outputs": [],
      "stateMutability": "nonpayable",
      "type": "function"
    },
    {
      "inputs": [
        {
          "internalType": "address",
          "name": "newOwner",
          "type": "address"
        }
      ],
      "name": "transferOwnership",
      "outputs": [],
      "stateMutability": "nonpayable",
      "type": "function"
    }
  ],
  "bytecode": "0x60806040523480156200001157600080fd5b506040805180820182526005815264536861726b60d81b60208083019182528351808501909452600384526253524b60e81b9084015281519192916200005a91600091620000e9565b50805162000070906001906020840190620000e9565b5050506200008d620000876200009360201b60201c565b62000097565b620001cc565b3390565b600780546001600160a01b038381166001600160a01b0319831681179093556040519116919082907f8be0079c531659141344cd1fd0a4f28419497f9722a3daafe3b4186f6b6457e090600090a35050565b828054620000f7906200018f565b90600052602060002090601f0160209004810192826200011b576000855562000166565b82601f106200013657805160ff191683800117855562000166565b8280016001018555821562000166579182015b828111156200016657825182559160200191906001019062000149565b506200017492915062000178565b5090565b5b8082111562000174576000815560010162000179565b600281046001821680620001a457607f821691505b60208210811415620001c657634e487b7160e01b600052602260045260246000fd5b50919050565b6119e280620001dc6000396000f3fe608060405234801561001057600080fd5b506004361061010b5760003560e01c8063715018a6116100a2578063b88d4fde11610071578063b88d4fde14610207578063c87b56dd1461021a578063e985e9c51461022d578063f2fde38b14610240578063fca9a67f146102535761010b565b8063715018a6146101dc5780638da5cb5b146101e457806395d89b41146101ec578063a22cb465146101f45761010b565b806323b872dd116100de57806323b872dd1461018357806342842e0e146101965780636352211e146101a957806370a08231146101bc5761010b565b806301ffc9a71461011057806306fdde0314610139578063081812fc1461014e578063095ea7b31461016e575b600080fd5b61012361011e366004611253565b610266565b604051610130919061134f565b60405180910390f35b6101416102ae565b604051610130919061135a565b61016161015c36600461128b565b610340565b60405161013091906112fe565b61018161017c36600461122a565b61038c565b005b6101816101913660046110dd565b610424565b6101816101a43660046110dd565b61045c565b6101616101b736600461128b565b610477565b6101cf6101ca366004611091565b6104ac565b6040516101309190611872565b6101816104f0565b61016161053b565b61014161054a565b610181610202366004611191565b610559565b610181610215366004611118565b610627565b61014161022836600461128b565b610666565b61012361023b3660046110ab565b610787565b61018161024e366004611091565b6107b5565b6101cf6102613660046111cb565b610826565b60006001600160e01b031982166380ac58cd60e01b148061029757506001600160e01b03198216635b5e139f60e01b145b806102a657506102a68261089a565b90505b919050565b6060600080546102bd906118ea565b80601f01602080910402602001604051908101604052809291908181526020018280546102e9906118ea565b80156103365780601f1061030b57610100808354040283529160200191610336565b820191906000526020600020905b81548152906001019060200180831161031957829003601f168201915b5050505050905090565b600061034b826108b3565b6103705760405162461bcd60e51b8152600401610367906116c7565b60405180910390fd5b506000908152600460205260409020546001600160a01b031690565b600061039782610477565b9050806001600160a01b0316836001600160a01b031614156103cb5760405162461bcd60e51b8152600401610367906117e0565b806001600160a01b03166103dd6108d0565b6001600160a01b031614806103f957506103f98161023b6108d0565b6104155760405162461bcd60e51b815260040161036790611503565b61041f83836108d4565b505050565b61043561042f6108d0565b82610942565b6104515760405162461bcd60e51b815260040161036790611821565b61041f8383836109bf565b61041f83838360405180602001604052806000815250610627565b6000818152600260205260408120546001600160a01b0316806102a65760405162461bcd60e51b8152600401610367906115aa565b60006001600160a01b0382166104d45760405162461bcd60e51b815260040161036790611560565b506001600160a01b031660009081526003602052604090205490565b6104f86108d0565b6001600160a01b031661050961053b565b6001600160a01b03161461052f5760405162461bcd60e51b815260040161036790611713565b6105396000610aec565b565b6007546001600160a01b031690565b6060600180546102bd906118ea565b6105616108d0565b6001600160a01b0316826001600160a01b031614156105925760405162461bcd60e51b815260040161036790611480565b806005600061059f6108d0565b6001600160a01b03908116825260208083019390935260409182016000908120918716808252919093529120805460ff1916921515929092179091556105e36108d0565b6001600160a01b03167f17307eab39ab6107e8899845ad3d59bd9653f200f220920489ca2b5937696c318360405161061b919061134f565b60405180910390a35050565b6106386106326108d0565b83610942565b6106545760405162461bcd60e51b815260040161036790611821565b61066084848484610b3e565b50505050565b6060610671826108b3565b61068d5760405162461bcd60e51b815260040161036790611676565b600082815260066020526040812080546106a6906118ea565b80601f01602080910402602001604051908101604052809291908181526020018280546106d2906118ea565b801561071f5780601f106106f45761010080835404028352916020019161071f565b820191906000526020600020905b81548152906001019060200180831161070257829003601f168201915b505050505090506000610730610b71565b9050805160001415610744575090506102a9565b81511561077657808260405160200161075e9291906112cf565b604051602081830303815290604052925050506102a9565b61077f84610b83565b949350505050565b6001600160a01b03918216600090815260056020908152604080832093909416825291909152205460ff1690565b6107bd6108d0565b6001600160a01b03166107ce61053b565b6001600160a01b0316146107f45760405162461bcd60e51b815260040161036790611713565b6001600160a01b03811661081a5760405162461bcd60e51b8152600401610367906113bf565b61082381610aec565b50565b60006108306108d0565b6001600160a01b031661084161053b565b6001600160a01b0316146108675760405162461bcd60e51b815260040161036790611713565b6108716008610c05565b600061087d6008610c0e565b90506108898482610c12565b6108938184610cf1565b9392505050565b6001600160e01b031981166301ffc9a760e01b14919050565b6000908152600260205260409020546001600160a01b0316151590565b3390565b600081815260046020526040902080546001600160a01b0319166001600160a01b038416908117909155819061090982610477565b6001600160a01b03167f8c5be1e5ebec7d5bd14f71427d1e84f3dd0314c0f7b2291e5b200ac8c7c3b92560405160405180910390a45050565b600061094d826108b3565b6109695760405162461bcd60e51b8152600401610367906114b7565b600061097483610477565b9050806001600160a01b0316846001600160a01b031614806109af5750836001600160a01b03166109a484610340565b6001600160a01b0316145b8061077f575061077f8185610787565b826001600160a01b03166109d282610477565b6001600160a01b0316146109f85760405162461bcd60e51b815260040161036790611748565b6001600160a01b038216610a1e5760405162461bcd60e51b81526004016103679061143c565b610a2983838361041f565b610a346000826108d4565b6001600160a01b0383166000908152600360205260408120805460019290610a5d9084906118a7565b90915550506001600160a01b0382166000908152600360205260408120805460019290610a8b90849061187b565b909155505060008181526002602052604080822080546001600160a01b0319166001600160a01b0386811691821790925591518493918716917fddf252ad1be2c89b69c2b068fc378daa952ba7f163c4a11628f55a4df523b3ef91a4505050565b600780546001600160a01b038381166001600160a01b0319831681179093556040519116919082907f8be0079c531659141344cd1fd0a4f28419497f9722a3daafe3b4186f6b6457e090600090a35050565b610b498484846109bf565b610b5584848484610d35565b6106605760405162461bcd60e51b81526004016103679061136d565b60408051602081019091526000815290565b6060610b8e826108b3565b610baa5760405162461bcd60e51b815260040161036790611791565b6000610bb4610b71565b90506000815111610bd45760405180602001604052806000815250610893565b80610bde84610e50565b604051602001610bef9291906112cf565b6040516020818303038152906040529392505050565b80546001019055565b5490565b6001600160a01b038216610c385760405162461bcd60e51b815260040161036790611641565b610c41816108b3565b15610c5e5760405162461bcd60e51b815260040161036790611405565b610c6a6000838361041f565b6001600160a01b0382166000908152600360205260408120805460019290610c9390849061187b565b909155505060008181526002602052604080822080546001600160a01b0319166001600160a01b03861690811790915590518392907fddf252ad1be2c89b69c2b068fc378daa952ba7f163c4a11628f55a4df523b3ef908290a45050565b610cfa826108b3565b610d165760405162461bcd60e51b8152600401610367906115f3565b6000828152600660209081526040909120825161041f92840190610f71565b6000610d49846001600160a01b0316610f6b565b15610e4557836001600160a01b031663150b7a02610d656108d0565b8786866040518563ffffffff1660e01b8152600401610d879493929190611312565b602060405180830381600087803b158015610da157600080fd5b505af1925050508015610dd1575060408051601f3d908101601f19168201909252610dce9181019061126f565b60015b610e2b573d808015610dff576040519150601f19603f3d011682016040523d82523d6000602084013e610e04565b606091505b508051610e235760405162461bcd60e51b81526004016103679061136d565b805181602001fd5b6001600160e01b031916630a85bd0160e11b14905061077f565b506001949350505050565b606081610e7557506040805180820190915260018152600360fc1b60208201526102a9565b8160005b8115610e9f5780610e8981611925565b9150610e989050600a83611893565b9150610e79565b60008167ffffffffffffffff811115610ec857634e487b7160e01b600052604160045260246000fd5b6040519080825280601f01601f191660200182016040528015610ef2576020820181803683370190505b5090505b841561077f57610f076001836118a7565b9150610f14600a86611940565b610f1f90603061187b565b60f81b818381518110610f4257634e487b7160e01b600052603260045260246000fd5b60200101906001600160f81b031916908160001a905350610f64600a86611893565b9450610ef6565b3b151590565b828054610f7d906118ea565b90600052602060002090601f016020900481019282610f9f5760008555610fe5565b82601f10610fb857805160ff1916838001178555610fe5565b82800160010185558215610fe5579182015b82811115610fe5578251825591602001919060010190610fca565b50610ff1929150610ff5565b5090565b5b80821115610ff15760008155600101610ff6565b600067ffffffffffffffff8084111561102557611025611980565b604051601f8501601f19168101602001828111828210171561104957611049611980565b60405284815291508183850186101561106157600080fd5b8484602083013760006020868301015250509392505050565b80356001600160a01b03811681146102a957600080fd5b6000602082840312156110a2578081fd5b6108938261107a565b600080604083850312156110bd578081fd5b6110c68361107a565b91506110d46020840161107a565b90509250929050565b6000806000606084860312156110f1578081fd5b6110fa8461107a565b92506111086020850161107a565b9150604084013590509250925092565b6000806000806080858703121561112d578081fd5b6111368561107a565b93506111446020860161107a565b925060408501359150606085013567ffffffffffffffff811115611166578182fd5b8501601f81018713611176578182fd5b6111858782356020840161100a565b91505092959194509250565b600080604083850312156111a3578182fd5b6111ac8361107a565b9150602083013580151581146111c0578182fd5b809150509250929050565b600080604083850312156111dd578182fd5b6111e68361107a565b9150602083013567ffffffffffffffff811115611201578182fd5b8301601f81018513611211578182fd5b6112208582356020840161100a565b9150509250929050565b6000806040838503121561123c578182fd5b6112458361107a565b946020939093013593505050565b600060208284031215611264578081fd5b813561089381611996565b600060208284031215611280578081fd5b815161089381611996565b60006020828403121561129c578081fd5b5035919050565b600081518084526112bb8160208601602086016118be565b601f01601f19169290920160200192915050565b600083516112e18184602088016118be565b8351908301906112f58183602088016118be565b01949350505050565b6001600160a01b0391909116815260200190565b6001600160a01b0385811682528416602082015260408101839052608060608201819052600090611345908301846112a3565b9695505050505050565b901515815260200190565b60006020825261089360208301846112a3565b60208082526032908201527f4552433732313a207472616e7366657220746f206e6f6e20455243373231526560408201527131b2b4bb32b91034b6b83632b6b2b73a32b960711b606082015260800190565b60208082526026908201527f4f776e61626c653a206e6577206f776e657220697320746865207a65726f206160408201526564647265737360d01b606082015260800190565b6020808252601c908201527f4552433732313a20746f6b656e20616c7265616479206d696e74656400000000604082015260600190565b60208082526024908201527f4552433732313a207472616e7366657220746f20746865207a65726f206164646040820152637265737360e01b606082015260800190565b60208082526019908201527f4552433732313a20617070726f766520746f2063616c6c657200000000000000604082015260600190565b6020808252602c908201527f4552433732313a206f70657261746f7220717565727920666f72206e6f6e657860408201526b34b9ba32b73a103a37b5b2b760a11b606082015260800190565b60208082526038908201527f4552433732313a20617070726f76652063616c6c6572206973206e6f74206f7760408201527f6e6572206e6f7220617070726f76656420666f7220616c6c0000000000000000606082015260800190565b6020808252602a908201527f4552433732313a2062616c616e636520717565727920666f7220746865207a65604082015269726f206164647265737360b01b606082015260800190565b60208082526029908201527f4552433732313a206f776e657220717565727920666f72206e6f6e657869737460408201526832b73a103a37b5b2b760b91b606082015260800190565b6020808252602e908201527f45524337323155524953746f726167653a2055524920736574206f66206e6f6e60408201526d32bc34b9ba32b73a103a37b5b2b760911b606082015260800190565b6020808252818101527f4552433732313a206d696e7420746f20746865207a65726f2061646472657373604082015260600190565b60208082526031908201527f45524337323155524953746f726167653a2055524920717565727920666f72206040820152703737b732bc34b9ba32b73a103a37b5b2b760791b606082015260800190565b6020808252602c908201527f4552433732313a20617070726f76656420717565727920666f72206e6f6e657860408201526b34b9ba32b73a103a37b5b2b760a11b606082015260800190565b6020808252818101527f4f776e61626c653a2063616c6c6572206973206e6f7420746865206f776e6572604082015260600190565b60208082526029908201527f4552433732313a207472616e73666572206f6620746f6b656e2074686174206960408201526839903737ba1037bbb760b91b606082015260800190565b6020808252602f908201527f4552433732314d657461646174613a2055524920717565727920666f72206e6f60408201526e3732bc34b9ba32b73a103a37b5b2b760891b606082015260800190565b60208082526021908201527f4552433732313a20617070726f76616c20746f2063757272656e74206f776e656040820152603960f91b606082015260800190565b60208082526031908201527f4552433732313a207472616e736665722063616c6c6572206973206e6f74206f6040820152701ddb995c881b9bdc88185c1c1c9bdd9959607a1b606082015260800190565b90815260200190565b6000821982111561188e5761188e611954565b500190565b6000826118a2576118a261196a565b500490565b6000828210156118b9576118b9611954565b500390565b60005b838110156118d95781810151838201526020016118c1565b838111156106605750506000910152565b6002810460018216806118fe57607f821691505b6020821081141561191f57634e487b7160e01b600052602260045260246000fd5b50919050565b600060001982141561193957611939611954565b5060010190565b60008261194f5761194f61196a565b500690565b634e487b7160e01b600052601160045260246000fd5b634e487b7160e01b600052601260045260246000fd5b634e487b7160e01b600052604160045260246000fd5b6001600160e01b03198116811461082357600080fdfea2646970667358221220d8e33b8ec6db82e247c731906e724f960a20d2b3f7735e3c0e066ac12bb02a9b64736f6c63430008000033",
  "linkReferences": {},
  "deployedLinkReferences": {}
}